:100000000C9434000C9446000C9446000C9446006A
:100010000C9446000C9446000C9446000C94460048
:100020000C9446000C9446000C9446000C94460038
:100030000C9446000C9446000C9446000C94460028
:100040000C9446000C9446000C9446000C94460018
:100050000C9446000C9446000C9446000C94460008
:100060000C9446000C94460011241FBECFEFD8E03C
:10007000DEBFCDBF21E0A0E0B1E001C01D92A03104
:10008000B207E1F70E94A9010C94C8010C9400008A
:100090008CE38AB980E284B98CEF84B9089589B180
:1000A00086FD1AC0109205011092040187FD1CC044
:1000B000109207011092060183B180FD1EC01092BC
:1000C0000F0110920E0181FF20C081E090E090931B
:1000D000010180930001089521E030E03093050193
:1000E0002093040187FFE4CF81E090E09093070123
:1000F0008093060183B180FFE2CF21E030E03093AE
:100100000F0120930E0181FDE0CF109201011092AA
:1001100000010895A0910601B09107011097A9F17F
:100120008091040190910501892B09F463C010921C
:10013000090110920801109203011092020140E09F
:1001400010920B0110920A0150E060910E01709123
:100150000F01E0910001F091010131E020E0672BF7
:1001600009F091C0EF2B09F091C0832F922F3295A7
:10017000330F307E20E090930D0180930C01852F8A
:10018000832B282B242B2BB90895E0910001F091AB
:1001900001018091040190910501309709F454C048
:1001A00021E030E0309309012093080144E00097FA
:1001B00009F052C060910E0170910F016115710537
:1001C00009F47AC0309709F077C081E090E090930D
:1001D00003018093020128E0672B21F1AB2B09F08A
:1001E00082C010920B0110920A0180E090E030E092
:1001F00050E0C1CF60910E0170910F016115710542
:1002000009F046C0109209011092080161157105AC
:1002100009F079C081E090E090930301809302019E
:1002200040E028E08091000190910101892B09F4C0
:1002300061C081E090E090930B0180930A0130E06F
:1002400050E180E090E097CF1092090110920801F0
:1002500040E0009709F4AECF109203011092020122
:1002600060910E0170910F016115710571F521E02A
:1002700030E030930B0120930A01009791F520E0C4
:1002800030E050E178CFEF2B09F06FCF30E06DCF49
:10029000E0910001F0910101EF2B09F4B3CF81E06F
:1002A00090E090930901809308011092030110924D
:1002B000020144E020E090CF10920301109202016D
:1002C00080E090E06115710591F2309781F6892BFD
:1002D00089F381E090E090930B0180930A0150E153
:1002E0003CCF50E13ACF8091000190910101892BE0
:1002F00009F49FCF10920B0110920A0130E050E0F8
:1003000080E090E038CF1092030110920201109724
:1003100041F480E090E040E0E0910001F0910101C3
:10032000D4CF40E020E058CF2D9A2FEF87EA91E616
:10033000215080409040E1F700C000002D982FEF41
:1003400087EA91E6215080409040E1F700C000002C
:1003500008958CE38AB980E284B98CEF84B90E9455
:100360004F000E948A002D9A2FEF87EA91E62150D4
:1003700080409040E1F700C000002D982FEF87EA01
:1003800091E6215080409040E1F700C00000E7CFA7
:04039000F894FFCF0F
:00000001FF
